{
  "_format": "hh-sol-artifact-1",
  "contractName": "MyEpicNFT",
  "sourceName": "contracts/MyEpicNFT.sol",
  "abi": [
    {
      "inputs": [],
      "stateMutability": "nonpayable",
      "type": "constructor"
    },
    {
      "anonymous": false,
      "inputs": [
        {
          "indexed": true,
          "internalType": "address",
          "name": "owner",
          "type": "address"
        },
        {
          "indexed": true,
          "internalType": "address",
          "name": "approved",
          "type": "address"
        },
        {
          "indexed": true,
          "internalType": "uint256",
          "name": "tokenId",
          "type": "uint256"
        }
      ],
      "name": "Approval",
      "type": "event"
    },
    {
      "anonymous": false,
      "inputs": [
        {
          "indexed": true,
          "internalType": "address",
          "name": "owner",
          "type": "address"
        },
        {
          "indexed": true,
          "internalType": "address",
          "name": "operator",
          "type": "address"
        },
        {
          "indexed": false,
          "internalType": "bool",
          "name": "approved",
          "type": "bool"
        }
      ],
      "name": "ApprovalForAll",
      "type": "event"
    },
    {
      "anonymous": false,
      "inputs": [
        {
          "indexed": false,
          "internalType": "address",
          "name": "sender",
          "type": "address"
        },
        {
          "indexed": false,
          "internalType": "uint256",
          "name": "tokenId",
          "type": "uint256"
        }
      ],
      "name": "NewEpicNFTMinted",
      "type": "event"
    },
    {
      "anonymous": false,
      "inputs": [
        {
          "indexed": true,
          "internalType": "address",
          "name": "from",
          "type": "address"
        },
        {
          "indexed": true,
          "internalType": "address",
          "name": "to",
          "type": "address"
        },
        {
          "indexed": true,
          "internalType": "uint256",
          "name": "tokenId",
          "type": "uint256"
        }
      ],
      "name": "Transfer",
      "type": "event"
    },
    {
      "inputs": [
        {
          "internalType": "address",
          "name": "to",
          "type": "address"
        },
        {
          "internalType": "uint256",
          "name": "tokenId",
          "type": "uint256"
        }
      ],
      "name": "approve",
      "outputs": [],
      "stateMutability": "nonpayable",
      "type": "function"
    },
    {
      "inputs": [
        {
          "internalType": "address",
          "name": "owner",
          "type": "address"
        }
      ],
      "name": "balanceOf",
      "outputs": [
        {
          "internalType": "uint256",
          "name": "",
          "type": "uint256"
        }
      ],
      "stateMutability": "view",
      "type": "function"
    },
    {
      "inputs": [
        {
          "internalType": "uint256",
          "name": "tokenId",
          "type": "uint256"
        }
      ],
      "name": "getApproved",
      "outputs": [
        {
          "internalType": "address",
          "name": "",
          "type": "address"
        }
      ],
      "stateMutability": "view",
      "type": "function"
    },
    {
      "inputs": [
        {
          "internalType": "address",
          "name": "owner",
          "type": "address"
        },
        {
          "internalType": "address",
          "name": "operator",
          "type": "address"
        }
      ],
      "name": "isApprovedForAll",
      "outputs": [
        {
          "internalType": "bool",
          "name": "",
          "type": "bool"
        }
      ],
      "stateMutability": "view",
      "type": "function"
    },
    {
      "inputs": [
        {
          "internalType": "string",
          "name": "_name",
          "type": "string"
        }
      ],
      "name": "makeAnEpicNFT",
      "outputs": [],
      "stateMutability": "nonpayable",
      "type": "function"
    },
    {
      "inputs": [],
      "name": "mintedSoFar",
      "outputs": [
        {
          "internalType": "uint256",
          "name": "",
          "type": "uint256"
        }
      ],
      "stateMutability": "view",
      "type": "function"
    },
    {
      "inputs": [],
      "name": "name",
      "outputs": [
        {
          "internalType": "string",
          "name": "",
          "type": "string"
        }
      ],
      "stateMutability": "view",
      "type": "function"
    },
    {
      "inputs": [
        {
          "internalType": "uint256",
          "name": "tokenId",
          "type": "uint256"
        }
      ],
      "name": "ownerOf",
      "outputs": [
        {
          "internalType": "address",
          "name": "",
          "type": "address"
        }
      ],
      "stateMutability": "view",
      "type": "function"
    },
    {
      "inputs": [
        {
          "internalType": "address",
          "name": "from",
          "type": "address"
        },
        {
          "internalType": "address",
          "name": "to",
          "type": "address"
        },
        {
          "internalType": "uint256",
          "name": "tokenId",
          "type": "uint256"
        }
      ],
      "name": "safeTransferFrom",
      "outputs": [],
      "stateMutability": "nonpayable",
      "type": "function"
    },
    {
      "inputs": [
        {
          "internalType": "address",
          "name": "from",
          "type": "address"
        },
        {
          "internalType": "address",
          "name": "to",
          "type": "address"
        },
        {
          "internalType": "uint256",
          "name": "tokenId",
          "type": "uint256"
        },
        {
          "internalType": "bytes",
          "name": "_data",
          "type": "bytes"
        }
      ],
      "name": "safeTransferFrom",
      "outputs": [],
      "stateMutability": "nonpayable",
      "type": "function"
    },
    {
      "inputs": [
        {
          "internalType": "address",
          "name": "operator",
          "type": "address"
        },
        {
          "internalType": "bool",
          "name": "approved",
          "type": "bool"
        }
      ],
      "name": "setApprovalForAll",
      "outputs": [],
      "stateMutability": "nonpayable",
      "type": "function"
    },
    {
      "inputs": [
        {
          "internalType": "bytes4",
          "name": "interfaceId",
          "type": "bytes4"
        }
      ],
      "name": "supportsInterface",
      "outputs": [
        {
          "internalType": "bool",
          "name": "",
          "type": "bool"
        }
      ],
      "stateMutability": "view",
      "type": "function"
    },
    {
      "inputs": [],
      "name": "symbol",
      "outputs": [
        {
          "internalType": "string",
          "name": "",
          "type": "string"
        }
      ],
      "stateMutability": "view",
      "type": "function"
    },
    {
      "inputs": [
        {
          "internalType": "uint256",
          "name": "tokenId",
          "type": "uint256"
        }
      ],
      "name": "tokenURI",
      "outputs": [
        {
          "internalType": "string",
          "name": "",
          "type": "string"
        }
      ],
      "stateMutability": "view",
      "type": "function"
    },
    {
      "inputs": [
        {
          "internalType": "address",
          "name": "from",
          "type": "address"
        },
        {
          "internalType": "address",
          "name": "to",
          "type": "address"
        },
        {
          "internalType": "uint256",
          "name": "tokenId",
          "type": "uint256"
        }
      ],
      "name": "transferFrom",
      "outputs": [],
      "stateMutability": "nonpayable",
      "type": "function"
    }
  ],
  "bytecode": "0x60806040526040518061022001604052806101e78152602001620037436101e79139600890805190602001906200003892919062000236565b506040518060c0016040528060868152602001620036bd60869139600990805190602001906200006a92919062000236565b503480156200007857600080fd5b506040518060400160405280601481526020017f4f6d6c65747465656520506172616469736565650000000000000000000000008152506040518060400160405280600681526020017f53515541524500000000000000000000000000000000000000000000000000008152508160009080519060200190620000fd92919062000236565b5080600190805190602001906200011692919062000236565b505050620001646040518060400160405280600581526020017f5741474d490000000000000000000000000000000000000000000000000000008152506200016a60201b62000c5d1760201c565b62000413565b6200020a8160405160240162000181919062000327565b6040516020818303038152906040527f41304fac000000000000000000000000000000000000000000000000000000007bffffffffffffffffffffffffffffffffffffffffffffffffffffffff19166020820180517bffffffffffffffffffffffffffffffffffffffffffffffffffffffff83818316178352505050506200020d60201b60201c565b50565b60008151905060006a636f6e736f6c652e6c6f679050602083016000808483855afa5050505050565b82805462000244906200039d565b90600052602060002090601f016020900481019282620002685760008555620002b4565b82601f106200028357805160ff1916838001178555620002b4565b82800160010185558215620002b4579182015b82811115620002b357825182559160200191906001019062000296565b5b509050620002c39190620002c7565b5090565b5b80821115620002e2576000816000905550600101620002c8565b5090565b6000620002f3826200034b565b620002ff818562000356565b93506200031181856020860162000367565b6200031c8162000402565b840191505092915050565b60006020820190508181036000830152620003438184620002e6565b905092915050565b600081519050919050565b600082825260208201905092915050565b60005b83811015620003875780820151818401526020810190506200036a565b8381111562000397576000848401525b50505050565b60006002820490506001821680620003b657607f821691505b60208210811415620003cd57620003cc620003d3565b5b50919050565b7f4e487b7100000000000000000000000000000000000000000000000000000000600052602260045260246000fd5b6000601f19601f8301169050919050565b61329a80620004236000396000f3fe608060405234801561001057600080fd5b50600436106100f55760003560e01c80636352211e11610097578063a22cb46511610066578063a22cb46514610284578063b88d4fde146102a0578063c87b56dd146102bc578063e985e9c5146102ec576100f5565b80636352211e146101e857806370a082311461021857806393bd3da51461024857806395d89b4114610266576100f5565b8063095ea7b3116100d3578063095ea7b31461017857806323b872dd1461019457806339fa8daf146101b057806342842e0e146101cc576100f5565b806301ffc9a7146100fa57806306fdde031461012a578063081812fc14610148575b600080fd5b610114600480360381019061010f9190611fd4565b61031c565b6040516101219190612b23565b60405180910390f35b6101326103fe565b60405161013f9190612b3e565b60405180910390f35b610162600480360381019061015d9190612067565b610490565b60405161016f9190612a93565b60405180910390f35b610192600480360381019061018d9190611f98565b610515565b005b6101ae60048036038101906101a99190611e92565b61062d565b005b6101ca60048036038101906101c59190612026565b61068d565b005b6101e660048036038101906101e19190611e92565b6107d2565b005b61020260048036038101906101fd9190612067565b6107f2565b60405161020f9190612a93565b60405180910390f35b610232600480360381019061022d9190611e2d565b6108a4565b60405161023f9190612d80565b60405180910390f35b61025061095c565b60405161025d9190612d80565b60405180910390f35b61026e61096d565b60405161027b9190612b3e565b60405180910390f35b61029e60048036038101906102999190611f5c565b6109ff565b005b6102ba60048036038101906102b59190611ee1565b610a15565b005b6102d660048036038101906102d19190612067565b610a77565b6040516102e39190612b3e565b60405180910390f35b61030660048036038101906103019190611e56565b610bc9565b6040516103139190612b23565b60405180910390f35b60007f80ac58cd000000000000000000000000000000000000000000000000000000007bffffffffffffffffffffffffffffffffffffffffffffffffffffffff1916827bffffffffffffffffffffffffffffffffffffffffffffffffffffffff191614806103e757507f5b5e139f000000000000000000000000000000000000000000000000000000007bffffffffffffffffffffffffffffffffffffffffffffffffffffffff1916827bffffffffffffffffffffffffffffffffffffffffffffffffffffffff1916145b806103f757506103f682610cf6565b5b9050919050565b60606000805461040d9061304f565b80601f01602080910402602001604051908101604052809291908181526020018280546104399061304f565b80156104865780601f1061045b57610100808354040283529160200191610486565b820191906000526020600020905b81548152906001019060200180831161046957829003601f168201915b5050505050905090565b600061049b82610d60565b6104da576040517f08c379a00000000000000000000000000000000000000000000000000000000081526004016104d190612ce0565b60405180910390fd5b6004600083815260200190815260200160002060009054906101000a900473ffffffffffffffffffffffffffffffffffffffff169050919050565b6000610520826107f2565b90508073ffffffffffffffffffffffffffffffffffffffff168373ffffffffffffffffffffffffffffffffffffffff161415610591576040517f08c379a000000000000000000000000000000000000000000000000000000000815260040161058890612d40565b60405180910390fd5b8073ffffffffffffffffffffffffffffffffffffffff166105b0610dcc565b73ffffffffffffffffffffffffffffffffffffffff1614806105df57506105de816105d9610dcc565b610bc9565b5b61061e576040517f08c379a000000000000000000000000000000000000000000000000000000000815260040161061590612c20565b60405180910390fd5b6106288383610dd4565b505050565b61063e610638610dcc565b82610e8d565b61067d576040517f08c379a000000000000000000000000000000000000000000000000000000000815260040161067490612d60565b60405180910390fd5b610688838383610f6b565b505050565b600061069960076111c7565b9050603281106106de576040517f08c379a00000000000000000000000000000000000000000000000000000000081526004016106d590612c00565b60405180910390fd5b6106e833826111d5565b600060086106f5836111f3565b60098560405160200161070b94939291906129e3565b6040516020818303038152906040529050600061075861072a846111f3565b610733846113a0565b604051602001610744929190612a2c565b6040516020818303038152906040526113a0565b905060008160405160200161076d9190612a71565b6040516020818303038152906040529050610788848261153f565b7febb98688741ffa4c7589bf325de30cf7becb63de567842e1ccdb6cb949fdc82c33856040516107b9929190612afa565b60405180910390a16107cb60076115b3565b5050505050565b6107ed83838360405180602001604052806000815250610a15565b505050565b6000806002600084815260200190815260200160002060009054906101000a900473ffffffffffffffffffffffffffffffffffffffff169050600073ffffffffffffffffffffffffffffffffffffffff168173ffffffffffffffffffffffffffffffffffffffff16141561089b576040517f08c379a000000000000000000000000000000000000000000000000000000000815260040161089290612c60565b60405180910390fd5b80915050919050565b60008073ffffffffffffffffffffffffffffffffffffffff168273ffffffffffffffffffffffffffffffffffffffff161415610915576040517f08c379a000000000000000000000000000000000000000000000000000000000815260040161090c90612c40565b60405180910390fd5b600360008373ffffffffffffffffffffffffffffffffffffffff1673ffffffffffffffffffffffffffffffffffffffff168152602001908152602001600020549050919050565b600061096860076111c7565b905090565b60606001805461097c9061304f565b80601f01602080910402602001604051908101604052809291908181526020018280546109a89061304f565b80156109f55780601f106109ca576101008083540402835291602001916109f5565b820191906000526020600020905b8154815290600101906020018083116109d857829003601f168201915b5050505050905090565b610a11610a0a610dcc565b83836115c9565b5050565b610a26610a20610dcc565b83610e8d565b610a65576040517f08c379a0000000000000000000000000000000000000000000000000000000008152600401610a5c90612d60565b60405180910390fd5b610a7184848484611736565b50505050565b6060610a8282610d60565b610ac1576040517f08c379a0000000000000000000000000000000000000000000000000000000008152600401610ab890612cc0565b60405180910390fd5b6000600660008481526020019081526020016000208054610ae19061304f565b80601f0160208091040260200160405190810160405280929190818152602001828054610b0d9061304f565b8015610b5a5780601f10610b2f57610100808354040283529160200191610b5a565b820191906000526020600020905b815481529060010190602001808311610b3d57829003601f168201915b505050505090506000610b6b611792565b9050600081511415610b81578192505050610bc4565b600082511115610bb6578082604051602001610b9e9291906129bf565b60405160208183030381529060405292505050610bc4565b610bbf846117a9565b925050505b919050565b6000600560008473ffffffffffffffffffffffffffffffffffffffff1673ffffffffffffffffffffffffffffffffffffffff16815260200190815260200160002060008373ffffffffffffffffffffffffffffffffffffffff1673ffffffffffffffffffffffffffffffffffffffff16815260200190815260200160002060009054906101000a900460ff16905092915050565b610cf381604051602401610c719190612b3e565b6040516020818303038152906040527f41304fac000000000000000000000000000000000000000000000000000000007bffffffffffffffffffffffffffffffffffffffffffffffffffffffff19166020820180517bffffffffffffffffffffffffffffffffffffffffffffffffffffffff8381831617835250505050611850565b50565b60007f01ffc9a7000000000000000000000000000000000000000000000000000000007bffffffffffffffffffffffffffffffffffffffffffffffffffffffff1916827bffffffffffffffffffffffffffffffffffffffffffffffffffffffff1916149050919050565b60008073ffffffffffffffffffffffffffffffffffffffff166002600084815260200190815260200160002060009054906101000a900473ffffffffffffffffffffffffffffffffffffffff1673ffffffffffffffffffffffffffffffffffffffff1614159050919050565b600033905090565b816004600083815260200190815260200160002060006101000a81548173ffffffffffffffffffffffffffffffffffffffff021916908373ffffffffffffffffffffffffffffffffffffffff160217905550808273ffffffffffffffffffffffffffffffffffffffff16610e47836107f2565b73ffffffffffffffffffffffffffffffffffffffff167f8c5be1e5ebec7d5bd14f71427d1e84f3dd0314c0f7b2291e5b200ac8c7c3b92560405160405180910390a45050565b6000610e9882610d60565b610ed7576040517f08c379a0000000000000000000000000000000000000000000000000000000008152600401610ece90612be0565b60405180910390fd5b6000610ee2836107f2565b90508073ffffffffffffffffffffffffffffffffffffffff168473ffffffffffffffffffffffffffffffffffffffff161480610f5157508373ffffffffffffffffffffffffffffffffffffffff16610f3984610490565b73ffffffffffffffffffffffffffffffffffffffff16145b80610f625750610f618185610bc9565b5b91505092915050565b8273ffffffffffffffffffffffffffffffffffffffff16610f8b826107f2565b73ffffffffffffffffffffffffffffffffffffffff1614610fe1576040517f08c379a0000000000000000000000000000000000000000000000000000000008152600401610fd890612d00565b60405180910390fd5b600073ffffffffffffffffffffffffffffffffffffffff168273ffffffffffffffffffffffffffffffffffffffff161415611051576040517f08c379a000000000000000000000000000000000000000000000000000000000815260040161104890612ba0565b60405180910390fd5b61105c838383611879565b611067600082610dd4565b6001600360008573ffffffffffffffffffffffffffffffffffffffff1673ffffffffffffffffffffffffffffffffffffffff16815260200190815260200160002060008282546110b79190612f65565b925050819055506001600360008473ffffffffffffffffffffffffffffffffffffffff1673ffffffffffffffffffffffffffffffffffffffff168152602001908152602001600020600082825461110e9190612e84565b92505081905550816002600083815260200190815260200160002060006101000a81548173ffffffffffffffffffffffffffffffffffffffff021916908373ffffffffffffffffffffffffffffffffffffffff160217905550808273ffffffffffffffffffffffffffffffffffffffff168473ffffffffffffffffffffffffffffffffffffffff167fddf252ad1be2c89b69c2b068fc378daa952ba7f163c4a11628f55a4df523b3ef60405160405180910390a4505050565b600081600001549050919050565b6111ef82826040518060200160405280600081525061187e565b5050565b6060600082141561123b576040518060400160405280600181526020017f3000000000000000000000000000000000000000000000000000000000000000815250905061139b565b600082905060005b6000821461126d57808061125690613081565b915050600a826112669190612eda565b9150611243565b60008167ffffffffffffffff8111156112af577f4e487b7100000000000000000000000000000000000000000000000000000000600052604160045260246000fd5b6040519080825280601f01601f1916602001820160405280156112e15781602001600182028036833780820191505090505b5090505b60008514611394576001826112fa9190612f65565b9150600a8561130991906130ca565b60306113159190612e84565b60f81b818381518110611351577f4e487b7100000000000000000000000000000000000000000000000000000000600052603260045260246000fd5b60200101907effffffffffffffffffffffffffffffffffffffffffffffffffffffffffffff1916908160001a905350600a8561138d9190612eda565b94506112e5565b8093505050505b919050565b60606000825114156113c35760405180602001604052806000815250905061153a565b600060405180606001604052806040815260200161322560409139905060006003600285516113f29190612e84565b6113fc9190612eda565b60046114089190612f0b565b905060006020826114199190612e84565b67ffffffffffffffff811115611458577f4e487b7100000000000000000000000000000000000000000000000000000000600052604160045260246000fd5b6040519080825280601f01601f19166020018201604052801561148a5781602001600182028036833780820191505090505b509050818152600183018586518101602084015b818310156114f9576003830192508251603f8160121c168501518253600182019150603f81600c1c168501518253600182019150603f8160061c168501518253600182019150603f811685015182536001820191505061149e565b60038951066001811461151357600281146115235761152e565b613d3d60f01b600283035261152e565b603d60f81b60018303525b50505050508093505050505b919050565b61154882610d60565b611587576040517f08c379a000000000000000000000000000000000000000000000000000000000815260040161157e90612c80565b60405180910390fd5b806006600084815260200190815260200160002090805190602001906115ae929190611c51565b505050565b6001816000016000828254019250508190555050565b8173ffffffffffffffffffffffffffffffffffffffff168373ffffffffffffffffffffffffffffffffffffffff161415611638576040517f08c379a000000000000000000000000000000000000000000000000000000000815260040161162f90612bc0565b60405180910390fd5b80600560008573ffffffffffffffffffffffffffffffffffffffff1673ffffffffffffffffffffffffffffffffffffffff16815260200190815260200160002060008473ffffffffffffffffffffffffffffffffffffffff1673ffffffffffffffffffffffffffffffffffffffff16815260200190815260200160002060006101000a81548160ff0219169083151502179055508173ffffffffffffffffffffffffffffffffffffffff168373ffffffffffffffffffffffffffffffffffffffff167f17307eab39ab6107e8899845ad3d59bd9653f200f220920489ca2b5937696c31836040516117299190612b23565b60405180910390a3505050565b611741848484610f6b565b61174d848484846118d9565b61178c576040517f08c379a000000000000000000000000000000000000000000000000000000000815260040161178390612b60565b60405180910390fd5b50505050565b606060405180602001604052806000815250905090565b60606117b482610d60565b6117f3576040517f08c379a00000000000000000000000000000000000000000000000000000000081526004016117ea90612d20565b60405180910390fd5b60006117fd611792565b9050600081511161181d5760405180602001604052806000815250611848565b80611827846111f3565b6040516020016118389291906129bf565b6040516020818303038152906040525b915050919050565b60008151905060006a636f6e736f6c652e6c6f679050602083016000808483855afa5050505050565b505050565b6118888383611a70565b61189560008484846118d9565b6118d4576040517f08c379a00000000000000000000000000000000000000000000000000000000081526004016118cb90612b60565b60405180910390fd5b505050565b60006118fa8473ffffffffffffffffffffffffffffffffffffffff16611c3e565b15611a63578373ffffffffffffffffffffffffffffffffffffffff1663150b7a02611923610dcc565b8786866040518563ffffffff1660e01b81526004016119459493929190612aae565b602060405180830381600087803b15801561195f57600080fd5b505af192505050801561199057506040513d601f19601f8201168201806040525081019061198d9190611ffd565b60015b611a13573d80600081146119c0576040519150601f19603f3d011682016040523d82523d6000602084013e6119c5565b606091505b50600081511415611a0b576040517f08c379a0000000000000000000000000000000000000000000000000000000008152600401611a0290612b60565b60405180910390fd5b805181602001fd5b63150b7a0260e01b7bffffffffffffffffffffffffffffffffffffffffffffffffffffffff1916817bffffffffffffffffffffffffffffffffffffffffffffffffffffffff191614915050611a68565b600190505b949350505050565b600073ffffffffffffffffffffffffffffffffffffffff168273ffffffffffffffffffffffffffffffffffffffff161415611ae0576040517f08c379a0000000000000000000000000000000000000000000000000000000008152600401611ad790612ca0565b60405180910390fd5b611ae981610d60565b15611b29576040517f08c379a0000000000000000000000000000000000000000000000000000000008152600401611b2090612b80565b60405180910390fd5b611b3560008383611879565b6001600360008473ffffffffffffffffffffffffffffffffffffffff1673ffffffffffffffffffffffffffffffffffffffff1681526020019081526020016000206000828254611b859190612e84565b92505081905550816002600083815260200190815260200160002060006101000a81548173ffffffffffffffffffffffffffffffffffffffff021916908373ffffffffffffffffffffffffffffffffffffffff160217905550808273ffffffffffffffffffffffffffffffffffffffff16600073ffffffffffffffffffffffffffffffffffffffff167fddf252ad1be2c89b69c2b068fc378daa952ba7f163c4a11628f55a4df523b3ef60405160405180910390a45050565b600080823b905060008111915050919050565b828054611c5d9061304f565b90600052602060002090601f016020900481019282611c7f5760008555611cc6565b82601f10611c9857805160ff1916838001178555611cc6565b82800160010185558215611cc6579182015b82811115611cc5578251825591602001919060010190611caa565b5b509050611cd39190611cd7565b5090565b5b80821115611cf0576000816000905550600101611cd8565b5090565b6000611d07611d0284612dcc565b612d9b565b905082815260208101848484011115611d1f57600080fd5b611d2a84828561300d565b509392505050565b6000611d45611d4084612dfc565b612d9b565b905082815260208101848484011115611d5d57600080fd5b611d6884828561300d565b509392505050565b600081359050611d7f816131c8565b92915050565b600081359050611d94816131df565b92915050565b600081359050611da9816131f6565b92915050565b600081519050611dbe816131f6565b92915050565b600082601f830112611dd557600080fd5b8135611de5848260208601611cf4565b91505092915050565b600082601f830112611dff57600080fd5b8135611e0f848260208601611d32565b91505092915050565b600081359050611e278161320d565b92915050565b600060208284031215611e3f57600080fd5b6000611e4d84828501611d70565b91505092915050565b60008060408385031215611e6957600080fd5b6000611e7785828601611d70565b9250506020611e8885828601611d70565b9150509250929050565b600080600060608486031215611ea757600080fd5b6000611eb586828701611d70565b9350506020611ec686828701611d70565b9250506040611ed786828701611e18565b9150509250925092565b60008060008060808587031215611ef757600080fd5b6000611f0587828801611d70565b9450506020611f1687828801611d70565b9350506040611f2787828801611e18565b925050606085013567ffffffffffffffff811115611f4457600080fd5b611f5087828801611dc4565b91505092959194509250565b60008060408385031215611f6f57600080fd5b6000611f7d85828601611d70565b9250506020611f8e85828601611d85565b9150509250929050565b60008060408385031215611fab57600080fd5b6000611fb985828601611d70565b9250506020611fca85828601611e18565b9150509250929050565b600060208284031215611fe657600080fd5b6000611ff484828501611d9a565b91505092915050565b60006020828403121561200f57600080fd5b600061201d84828501611daf565b91505092915050565b60006020828403121561203857600080fd5b600082013567ffffffffffffffff81111561205257600080fd5b61205e84828501611dee565b91505092915050565b60006020828403121561207957600080fd5b600061208784828501611e18565b91505092915050565b61209981612f99565b82525050565b6120a881612fab565b82525050565b60006120b982612e41565b6120c38185612e57565b93506120d381856020860161301c565b6120dc816131b7565b840191505092915050565b60006120f282612e4c565b6120fc8185612e68565b935061210c81856020860161301c565b612115816131b7565b840191505092915050565b600061212b82612e4c565b6121358185612e79565b935061214581856020860161301c565b80840191505092915050565b6000815461215e8161304f565b6121688186612e79565b945060018216600081146121835760018114612194576121c7565b60ff198316865281860193506121c7565b61219d85612e2c565b60005b838110156121bf578154818901526001820191506020810190506121a0565b838801955050505b50505092915050565b60006121dd606283612e79565b91507f222c20226465736372697074696f6e22203a2022446f7065206f6d656c65747460008301527f65206e667473206c696b65206e65766572206265666f726565222c2022696d6160208301527f676522203a202022646174613a696d6167652f7376672b786d6c3b626173653660408301527f342c0000000000000000000000000000000000000000000000000000000000006060830152606282019050919050565b600061228f603283612e68565b91507f4552433732313a207472616e7366657220746f206e6f6e20455243373231526560008301527f63656976657220696d706c656d656e74657200000000000000000000000000006020830152604082019050919050565b60006122f5601c83612e68565b91507f4552433732313a20746f6b656e20616c7265616479206d696e746564000000006000830152602082019050919050565b6000612335602483612e68565b91507f4552433732313a207472616e7366657220746f20746865207a65726f2061646460008301527f72657373000000000000000000000000000000000000000000000000000000006020830152604082019050919050565b600061239b601983612e68565b91507f4552433732313a20617070726f766520746f2063616c6c6572000000000000006000830152602082019050919050565b60006123db602c83612e68565b91507f4552433732313a206f70657261746f7220717565727920666f72206e6f6e657860008301527f697374656e7420746f6b656e00000000000000000000000000000000000000006020830152604082019050919050565b6000612441600d83612e79565b91507f3c2f746578743e3c2f7376673e000000000000000000000000000000000000006000830152600d82019050919050565b6000612481601783612e68565b91507f536f72727920776527726520736f6c64206f7574203b290000000000000000006000830152602082019050919050565b60006124c1603883612e68565b91507f4552433732313a20617070726f76652063616c6c6572206973206e6f74206f7760008301527f6e6572206e6f7220617070726f76656420666f7220616c6c00000000000000006020830152604082019050919050565b6000612527602a83612e68565b91507f4552433732313a2062616c616e636520717565727920666f7220746865207a6560008301527f726f2061646472657373000000000000000000000000000000000000000000006020830152604082019050919050565b600061258d602983612e68565b91507f4552433732313a206f776e657220717565727920666f72206e6f6e657869737460008301527f656e7420746f6b656e00000000000000000000000000000000000000000000006020830152604082019050919050565b60006125f3602e83612e68565b91507f45524337323155524953746f726167653a2055524920736574206f66206e6f6e60008301527f6578697374656e7420746f6b656e0000000000000000000000000000000000006020830152604082019050919050565b6000612659600283612e79565b91507f227d0000000000000000000000000000000000000000000000000000000000006000830152600282019050919050565b6000612699602083612e68565b91507f4552433732313a206d696e7420746f20746865207a65726f20616464726573736000830152602082019050919050565b60006126d9603183612e68565b91507f45524337323155524953746f726167653a2055524920717565727920666f722060008301527f6e6f6e6578697374656e7420746f6b656e0000000000000000000000000000006020830152604082019050919050565b600061273f602c83612e68565b91507f4552433732313a20617070726f76656420717565727920666f72206e6f6e657860008301527f697374656e7420746f6b656e00000000000000000000000000000000000000006020830152604082019050919050565b60006127a5602983612e68565b91507f4552433732313a207472616e73666572206f6620746f6b656e2074686174206960008301527f73206e6f74206f776e00000000000000000000000000000000000000000000006020830152604082019050919050565b600061280b602f83612e68565b91507f4552433732314d657461646174613a2055524920717565727920666f72206e6f60008301527f6e6578697374656e7420746f6b656e00000000000000000000000000000000006020830152604082019050919050565b6000612871602183612e68565b91507f4552433732313a20617070726f76616c20746f2063757272656e74206f776e6560008301527f72000000000000000000000000000000000000000000000000000000000000006020830152604082019050919050565b60006128d7601583612e79565b91507f7b226e616d6522203a20224f6d656c65747465202300000000000000000000006000830152601582019050919050565b6000612917601d83612e79565b91507f646174613a6170706c69636174696f6e2f6a736f6e3b6261736536342c0000006000830152601d82019050919050565b6000612957603183612e68565b91507f4552433732313a207472616e736665722063616c6c6572206973206e6f74206f60008301527f776e6572206e6f7220617070726f7665640000000000000000000000000000006020830152604082019050919050565b6129b981613003565b82525050565b60006129cb8285612120565b91506129d78284612120565b91508190509392505050565b60006129ef8287612151565b91506129fb8286612120565b9150612a078285612151565b9150612a138284612120565b9150612a1e82612434565b915081905095945050505050565b6000612a37826128ca565b9150612a438285612120565b9150612a4e826121d0565b9150612a5a8284612120565b9150612a658261264c565b91508190509392505050565b6000612a7c8261290a565b9150612a888284612120565b915081905092915050565b6000602082019050612aa86000830184612090565b92915050565b6000608082019050612ac36000830187612090565b612ad06020830186612090565b612add60408301856129b0565b8181036060830152612aef81846120ae565b905095945050505050565b6000604082019050612b0f6000830185612090565b612b1c60208301846129b0565b9392505050565b6000602082019050612b38600083018461209f565b92915050565b60006020820190508181036000830152612b5881846120e7565b905092915050565b60006020820190508181036000830152612b7981612282565b9050919050565b60006020820190508181036000830152612b99816122e8565b9050919050565b60006020820190508181036000830152612bb981612328565b9050919050565b60006020820190508181036000830152612bd98161238e565b9050919050565b60006020820190508181036000830152612bf9816123ce565b9050919050565b60006020820190508181036000830152612c1981612474565b9050919050565b60006020820190508181036000830152612c39816124b4565b9050919050565b60006020820190508181036000830152612c598161251a565b9050919050565b60006020820190508181036000830152612c7981612580565b9050919050565b60006020820190508181036000830152612c99816125e6565b9050919050565b60006020820190508181036000830152612cb98161268c565b9050919050565b60006020820190508181036000830152612cd9816126cc565b9050919050565b60006020820190508181036000830152612cf981612732565b9050919050565b60006020820190508181036000830152612d1981612798565b9050919050565b60006020820190508181036000830152612d39816127fe565b9050919050565b60006020820190508181036000830152612d5981612864565b9050919050565b60006020820190508181036000830152612d798161294a565b9050919050565b6000602082019050612d9560008301846129b0565b92915050565b6000604051905081810181811067ffffffffffffffff82111715612dc257612dc1613188565b5b8060405250919050565b600067ffffffffffffffff821115612de757612de6613188565b5b601f19601f8301169050602081019050919050565b600067ffffffffffffffff821115612e1757612e16613188565b5b601f19601f8301169050602081019050919050565b60008190508160005260206000209050919050565b600081519050919050565b600081519050919050565b600082825260208201905092915050565b600082825260208201905092915050565b600081905092915050565b6000612e8f82613003565b9150612e9a83613003565b9250827fffffffffffffffffffffffffffffffffffffffffffffffffffffffffffffffff03821115612ecf57612ece6130fb565b5b828201905092915050565b6000612ee582613003565b9150612ef083613003565b925082612f0057612eff61312a565b5b828204905092915050565b6000612f1682613003565b9150612f2183613003565b9250817fffffffffffffffffffffffffffffffffffffffffffffffffffffffffffffffff0483118215151615612f5a57612f596130fb565b5b828202905092915050565b6000612f7082613003565b9150612f7b83613003565b925082821015612f8e57612f8d6130fb565b5b828203905092915050565b6000612fa482612fe3565b9050919050565b60008115159050919050565b60007fffffffff0000000000000000000000000000000000000000000000000000000082169050919050565b600073ffffffffffffffffffffffffffffffffffffffff82169050919050565b6000819050919050565b82818337600083830152505050565b60005b8381101561303a57808201518184015260208101905061301f565b83811115613049576000848401525b50505050565b6000600282049050600182168061306757607f821691505b6020821081141561307b5761307a613159565b5b50919050565b600061308c82613003565b91507fffffffffffffffffffffffffffffffffffffffffffffffffffffffffffffffff8214156130bf576130be6130fb565b5b600182019050919050565b60006130d582613003565b91506130e083613003565b9250826130f0576130ef61312a565b5b828206905092915050565b7f4e487b7100000000000000000000000000000000000000000000000000000000600052601160045260246000fd5b7f4e487b7100000000000000000000000000000000000000000000000000000000600052601260045260246000fd5b7f4e487b7100000000000000000000000000000000000000000000000000000000600052602260045260246000fd5b7f4e487b7100000000000000000000000000000000000000000000000000000000600052604160045260246000fd5b6000601f19601f8301169050919050565b6131d181612f99565b81146131dc57600080fd5b50565b6131e881612fab565b81146131f357600080fd5b50565b6131ff81612fb7565b811461320a57600080fd5b50565b61321681613003565b811461322157600080fd5b5056fe4142434445464748494a4b4c4d4e4f505152535455565758595a6162636465666768696a6b6c6d6e6f707172737475767778797a303132333435363738392b2fa26469706673582212202de6577ccd0998abd321a75b639023e113beaedf47bb3cfab4e1b651a338cd5d64736f6c634300080000333c2f746578743e3c74657874207374796c653d22666f6e742d73697a653a3970783b666f6e742d7765696768743a3730302220646f6d696e616e742d626173656c696e653d226d6964646c652220746578742d616e63686f723d226d6964646c652220636c6173733d22742220793d223935252220783d22353025223e6f776e6564206279203c73766720786d6c6e733d22687474703a2f2f7777772e77332e6f72672f323030302f737667222076696577426f783d223020302032303020323030223e3c7374796c653e40696d706f72742075726c2868747470733a2f2f666f6e74732e676f6f676c65617069732e636f6d2f6373733f66616d696c793d496e746572293b2e747b66696c6c3a233030303b666f6e742d66616d696c793a496e7465727d3c2f7374796c653e3c726563742066696c6c3d222366666622206865696768743d2231303025222077696474683d2231303025222f3e3c706174682066696c6c3d22234641444235462220643d224d33392e3237352038312e3433346331332e3932342d34352e3534342033332e3734372d35362e3038342037392e32392d34322e31367335362e3038352033332e3734382034322e31362037392e3239322d33332e3734372035362e3038342d37392e32392034322e31362d35362e3038352d33332e3734382d34322e31362d37392e323932222f3e3c74657874207374796c653d22666f6e742d73697a653a313170782220646f6d696e616e742d626173656c696e653d226d6964646c652220746578742d616e63686f723d226d6964646c652220636c6173733d22742220793d223530252220783d22353025223e4f6d656c657474652023",
  "linkReferences": {},
  "deployedLinkReferences": {}
}