{
  "_format": "hh-sol-artifact-1",
  "contractName": "MyEpicNFT",
  "sourceName": "contracts/MyEpicNFT.sol",
  "abi": [
    {
      "inputs": [],
      "stateMutability": "nonpayable",
      "type": "constructor"
    },
    {
      "anonymous": false,
      "inputs": [
        {
          "indexed": true,
          "internalType": "address",
          "name": "owner",
          "type": "address"
        },
        {
          "indexed": true,
          "internalType": "address",
          "name": "approved",
          "type": "address"
        },
        {
          "indexed": true,
          "internalType": "uint256",
          "name": "tokenId",
          "type": "uint256"
        }
      ],
      "name": "Approval",
      "type": "event"
    },
    {
      "anonymous": false,
      "inputs": [
        {
          "indexed": true,
          "internalType": "address",
          "name": "owner",
          "type": "address"
        },
        {
          "indexed": true,
          "internalType": "address",
          "name": "operator",
          "type": "address"
        },
        {
          "indexed": false,
          "internalType": "bool",
          "name": "approved",
          "type": "bool"
        }
      ],
      "name": "ApprovalForAll",
      "type": "event"
    },
    {
      "anonymous": false,
      "inputs": [
        {
          "indexed": false,
          "internalType": "address",
          "name": "sender",
          "type": "address"
        },
        {
          "indexed": false,
          "internalType": "uint256",
          "name": "tokenId",
          "type": "uint256"
        }
      ],
      "name": "NewEpicNFTMinted",
      "type": "event"
    },
    {
      "anonymous": false,
      "inputs": [
        {
          "indexed": true,
          "internalType": "address",
          "name": "from",
          "type": "address"
        },
        {
          "indexed": true,
          "internalType": "address",
          "name": "to",
          "type": "address"
        },
        {
          "indexed": true,
          "internalType": "uint256",
          "name": "tokenId",
          "type": "uint256"
        }
      ],
      "name": "Transfer",
      "type": "event"
    },
    {
      "inputs": [
        {
          "internalType": "address",
          "name": "to",
          "type": "address"
        },
        {
          "internalType": "uint256",
          "name": "tokenId",
          "type": "uint256"
        }
      ],
      "name": "approve",
      "outputs": [],
      "stateMutability": "nonpayable",
      "type": "function"
    },
    {
      "inputs": [
        {
          "internalType": "address",
          "name": "owner",
          "type": "address"
        }
      ],
      "name": "balanceOf",
      "outputs": [
        {
          "internalType": "uint256",
          "name": "",
          "type": "uint256"
        }
      ],
      "stateMutability": "view",
      "type": "function"
    },
    {
      "inputs": [
        {
          "internalType": "uint256",
          "name": "tokenId",
          "type": "uint256"
        }
      ],
      "name": "getApproved",
      "outputs": [
        {
          "internalType": "address",
          "name": "",
          "type": "address"
        }
      ],
      "stateMutability": "view",
      "type": "function"
    },
    {
      "inputs": [
        {
          "internalType": "address",
          "name": "owner",
          "type": "address"
        },
        {
          "internalType": "address",
          "name": "operator",
          "type": "address"
        }
      ],
      "name": "isApprovedForAll",
      "outputs": [
        {
          "internalType": "bool",
          "name": "",
          "type": "bool"
        }
      ],
      "stateMutability": "view",
      "type": "function"
    },
    {
      "inputs": [
        {
          "internalType": "string",
          "name": "_name",
          "type": "string"
        }
      ],
      "name": "makeAnEpicNFT",
      "outputs": [],
      "stateMutability": "nonpayable",
      "type": "function"
    },
    {
      "inputs": [],
      "name": "mintedSoFar",
      "outputs": [
        {
          "internalType": "uint256",
          "name": "",
          "type": "uint256"
        }
      ],
      "stateMutability": "view",
      "type": "function"
    },
    {
      "inputs": [],
      "name": "name",
      "outputs": [
        {
          "internalType": "string",
          "name": "",
          "type": "string"
        }
      ],
      "stateMutability": "view",
      "type": "function"
    },
    {
      "inputs": [
        {
          "internalType": "uint256",
          "name": "tokenId",
          "type": "uint256"
        }
      ],
      "name": "ownerOf",
      "outputs": [
        {
          "internalType": "address",
          "name": "",
          "type": "address"
        }
      ],
      "stateMutability": "view",
      "type": "function"
    },
    {
      "inputs": [
        {
          "internalType": "address",
          "name": "from",
          "type": "address"
        },
        {
          "internalType": "address",
          "name": "to",
          "type": "address"
        },
        {
          "internalType": "uint256",
          "name": "tokenId",
          "type": "uint256"
        }
      ],
      "name": "safeTransferFrom",
      "outputs": [],
      "stateMutability": "nonpayable",
      "type": "function"
    },
    {
      "inputs": [
        {
          "internalType": "address",
          "name": "from",
          "type": "address"
        },
        {
          "internalType": "address",
          "name": "to",
          "type": "address"
        },
        {
          "internalType": "uint256",
          "name": "tokenId",
          "type": "uint256"
        },
        {
          "internalType": "bytes",
          "name": "_data",
          "type": "bytes"
        }
      ],
      "name": "safeTransferFrom",
      "outputs": [],
      "stateMutability": "nonpayable",
      "type": "function"
    },
    {
      "inputs": [
        {
          "internalType": "address",
          "name": "operator",
          "type": "address"
        },
        {
          "internalType": "bool",
          "name": "approved",
          "type": "bool"
        }
      ],
      "name": "setApprovalForAll",
      "outputs": [],
      "stateMutability": "nonpayable",
      "type": "function"
    },
    {
      "inputs": [
        {
          "internalType": "bytes4",
          "name": "interfaceId",
          "type": "bytes4"
        }
      ],
      "name": "supportsInterface",
      "outputs": [
        {
          "internalType": "bool",
          "name": "",
          "type": "bool"
        }
      ],
      "stateMutability": "view",
      "type": "function"
    },
    {
      "inputs": [],
      "name": "symbol",
      "outputs": [
        {
          "internalType": "string",
          "name": "",
          "type": "string"
        }
      ],
      "stateMutability": "view",
      "type": "function"
    },
    {
      "inputs": [
        {
          "internalType": "uint256",
          "name": "tokenId",
          "type": "uint256"
        }
      ],
      "name": "tokenURI",
      "outputs": [
        {
          "internalType": "string",
          "name": "",
          "type": "string"
        }
      ],
      "stateMutability": "view",
      "type": "function"
    },
    {
      "inputs": [
        {
          "internalType": "address",
          "name": "from",
          "type": "address"
        },
        {
          "internalType": "address",
          "name": "to",
          "type": "address"
        },
        {
          "internalType": "uint256",
          "name": "tokenId",
          "type": "uint256"
        }
      ],
      "name": "transferFrom",
      "outputs": [],
      "stateMutability": "nonpayable",
      "type": "function"
    }
  ],
  "bytecode": "0x60806040526040518061022001604052806101e78152602001620036e16101e79139600890805190602001906200003892919062000236565b506040518060c00160405280608681526020016200365b60869139600990805190602001906200006a92919062000236565b503480156200007857600080fd5b506040518060400160405280601081526020017f4f6d6c65747465205061726164697365000000000000000000000000000000008152506040518060400160405280600681526020017f53515541524500000000000000000000000000000000000000000000000000008152508160009080519060200190620000fd92919062000236565b5080600190805190602001906200011692919062000236565b505050620001646040518060400160405280600581526020017f5741474d490000000000000000000000000000000000000000000000000000008152506200016a60201b62000c241760201c565b62000413565b6200020a8160405160240162000181919062000327565b6040516020818303038152906040527f41304fac000000000000000000000000000000000000000000000000000000007bffffffffffffffffffffffffffffffffffffffffffffffffffffffff19166020820180517bffffffffffffffffffffffffffffffffffffffffffffffffffffffff83818316178352505050506200020d60201b60201c565b50565b60008151905060006a636f6e736f6c652e6c6f679050602083016000808483855afa5050505050565b82805462000244906200039d565b90600052602060002090601f016020900481019282620002685760008555620002b4565b82601f106200028357805160ff1916838001178555620002b4565b82800160010185558215620002b4579182015b82811115620002b357825182559160200191906001019062000296565b5b509050620002c39190620002c7565b5090565b5b80821115620002e2576000816000905550600101620002c8565b5090565b6000620002f3826200034b565b620002ff818562000356565b93506200031181856020860162000367565b6200031c8162000402565b840191505092915050565b60006020820190508181036000830152620003438184620002e6565b905092915050565b600081519050919050565b600082825260208201905092915050565b60005b83811015620003875780820151818401526020810190506200036a565b8381111562000397576000848401525b50505050565b60006002820490506001821680620003b657607f821691505b60208210811415620003cd57620003cc620003d3565b5b50919050565b7f4e487b7100000000000000000000000000000000000000000000000000000000600052602260045260246000fd5b6000601f19601f8301169050919050565b61323880620004236000396000f3fe608060405234801561001057600080fd5b50600436106100f55760003560e01c80636352211e11610097578063a22cb46511610066578063a22cb46514610284578063b88d4fde146102a0578063c87b56dd146102bc578063e985e9c5146102ec576100f5565b80636352211e146101e857806370a082311461021857806393bd3da51461024857806395d89b4114610266576100f5565b8063095ea7b3116100d3578063095ea7b31461017857806323b872dd1461019457806339fa8daf146101b057806342842e0e146101cc576100f5565b806301ffc9a7146100fa57806306fdde031461012a578063081812fc14610148575b600080fd5b610114600480360381019061010f9190611f9b565b61031c565b6040516101219190612ac1565b60405180910390f35b6101326103fe565b60405161013f9190612adc565b60405180910390f35b610162600480360381019061015d919061202e565b610490565b60405161016f9190612a5a565b60405180910390f35b610192600480360381019061018d9190611f5f565b610515565b005b6101ae60048036038101906101a99190611e59565b61062d565b005b6101ca60048036038101906101c59190611fed565b61068d565b005b6101e660048036038101906101e19190611e59565b610799565b005b61020260048036038101906101fd919061202e565b6107b9565b60405161020f9190612a5a565b60405180910390f35b610232600480360381019061022d9190611df4565b61086b565b60405161023f9190612d1e565b60405180910390f35b610250610923565b60405161025d9190612d1e565b60405180910390f35b61026e610934565b60405161027b9190612adc565b60405180910390f35b61029e60048036038101906102999190611f23565b6109c6565b005b6102ba60048036038101906102b59190611ea8565b6109dc565b005b6102d660048036038101906102d1919061202e565b610a3e565b6040516102e39190612adc565b60405180910390f35b61030660048036038101906103019190611e1d565b610b90565b6040516103139190612ac1565b60405180910390f35b60007f80ac58cd000000000000000000000000000000000000000000000000000000007bffffffffffffffffffffffffffffffffffffffffffffffffffffffff1916827bffffffffffffffffffffffffffffffffffffffffffffffffffffffff191614806103e757507f5b5e139f000000000000000000000000000000000000000000000000000000007bffffffffffffffffffffffffffffffffffffffffffffffffffffffff1916827bffffffffffffffffffffffffffffffffffffffffffffffffffffffff1916145b806103f757506103f682610cbd565b5b9050919050565b60606000805461040d90612fed565b80601f016020809104026020016040519081016040528092919081815260200182805461043990612fed565b80156104865780601f1061045b57610100808354040283529160200191610486565b820191906000526020600020905b81548152906001019060200180831161046957829003601f168201915b5050505050905090565b600061049b82610d27565b6104da576040517f08c379a00000000000000000000000000000000000000000000000000000000081526004016104d190612c7e565b60405180910390fd5b6004600083815260200190815260200160002060009054906101000a900473ffffffffffffffffffffffffffffffffffffffff169050919050565b6000610520826107b9565b90508073ffffffffffffffffffffffffffffffffffffffff168373ffffffffffffffffffffffffffffffffffffffff161415610591576040517f08c379a000000000000000000000000000000000000000000000000000000000815260040161058890612cde565b60405180910390fd5b8073ffffffffffffffffffffffffffffffffffffffff166105b0610d93565b73ffffffffffffffffffffffffffffffffffffffff1614806105df57506105de816105d9610d93565b610b90565b5b61061e576040517f08c379a000000000000000000000000000000000000000000000000000000000815260040161061590612bbe565b60405180910390fd5b6106288383610d9b565b505050565b61063e610638610d93565b82610e54565b61067d576040517f08c379a000000000000000000000000000000000000000000000000000000000815260040161067490612cfe565b60405180910390fd5b610688838383610f32565b505050565b6000610699600761118e565b9050603281106106de576040517f08c379a00000000000000000000000000000000000000000000000000000000081526004016106d590612b9e565b60405180910390fd5b6106e8338261119c565b600060086106f5836111ba565b60098560405160200161070b94939291906129aa565b6040516020818303038152906040529050600061075861072a846111ba565b61073384611367565b6040516020016107449291906129f3565b604051602081830303815290604052611367565b905060008160405160200161076d9190612a38565b60405160208183030381529060405290506107888482611506565b610792600761157a565b5050505050565b6107b4838383604051806020016040528060008152506109dc565b505050565b6000806002600084815260200190815260200160002060009054906101000a900473ffffffffffffffffffffffffffffffffffffffff169050600073ffffffffffffffffffffffffffffffffffffffff168173ffffffffffffffffffffffffffffffffffffffff161415610862576040517f08c379a000000000000000000000000000000000000000000000000000000000815260040161085990612bfe565b60405180910390fd5b80915050919050565b60008073ffffffffffffffffffffffffffffffffffffffff168273ffffffffffffffffffffffffffffffffffffffff1614156108dc576040517f08c379a00000000000000000000000000000000000000000000000000000000081526004016108d390612bde565b60405180910390fd5b600360008373ffffffffffffffffffffffffffffffffffffffff1673ffffffffffffffffffffffffffffffffffffffff168152602001908152602001600020549050919050565b600061092f600761118e565b905090565b60606001805461094390612fed565b80601f016020809104026020016040519081016040528092919081815260200182805461096f90612fed565b80156109bc5780601f10610991576101008083540402835291602001916109bc565b820191906000526020600020905b81548152906001019060200180831161099f57829003601f168201915b5050505050905090565b6109d86109d1610d93565b8383611590565b5050565b6109ed6109e7610d93565b83610e54565b610a2c576040517f08c379a0000000000000000000000000000000000000000000000000000000008152600401610a2390612cfe565b60405180910390fd5b610a38848484846116fd565b50505050565b6060610a4982610d27565b610a88576040517f08c379a0000000000000000000000000000000000000000000000000000000008152600401610a7f90612c5e565b60405180910390fd5b6000600660008481526020019081526020016000208054610aa890612fed565b80601f0160208091040260200160405190810160405280929190818152602001828054610ad490612fed565b8015610b215780601f10610af657610100808354040283529160200191610b21565b820191906000526020600020905b815481529060010190602001808311610b0457829003601f168201915b505050505090506000610b32611759565b9050600081511415610b48578192505050610b8b565b600082511115610b7d578082604051602001610b65929190612986565b60405160208183030381529060405292505050610b8b565b610b8684611770565b925050505b919050565b6000600560008473ffffffffffffffffffffffffffffffffffffffff1673ffffffffffffffffffffffffffffffffffffffff16815260200190815260200160002060008373ffffffffffffffffffffffffffffffffffffffff1673ffffffffffffffffffffffffffffffffffffffff16815260200190815260200160002060009054906101000a900460ff16905092915050565b610cba81604051602401610c389190612adc565b6040516020818303038152906040527f41304fac000000000000000000000000000000000000000000000000000000007bffffffffffffffffffffffffffffffffffffffffffffffffffffffff19166020820180517bffffffffffffffffffffffffffffffffffffffffffffffffffffffff8381831617835250505050611817565b50565b60007f01ffc9a7000000000000000000000000000000000000000000000000000000007bffffffffffffffffffffffffffffffffffffffffffffffffffffffff1916827bffffffffffffffffffffffffffffffffffffffffffffffffffffffff1916149050919050565b60008073ffffffffffffffffffffffffffffffffffffffff166002600084815260200190815260200160002060009054906101000a900473ffffffffffffffffffffffffffffffffffffffff1673ffffffffffffffffffffffffffffffffffffffff1614159050919050565b600033905090565b816004600083815260200190815260200160002060006101000a81548173ffffffffffffffffffffffffffffffffffffffff021916908373ffffffffffffffffffffffffffffffffffffffff160217905550808273ffffffffffffffffffffffffffffffffffffffff16610e0e836107b9565b73ffffffffffffffffffffffffffffffffffffffff167f8c5be1e5ebec7d5bd14f71427d1e84f3dd0314c0f7b2291e5b200ac8c7c3b92560405160405180910390a45050565b6000610e5f82610d27565b610e9e576040517f08c379a0000000000000000000000000000000000000000000000000000000008152600401610e9590612b7e565b60405180910390fd5b6000610ea9836107b9565b90508073ffffffffffffffffffffffffffffffffffffffff168473ffffffffffffffffffffffffffffffffffffffff161480610f1857508373ffffffffffffffffffffffffffffffffffffffff16610f0084610490565b73ffffffffffffffffffffffffffffffffffffffff16145b80610f295750610f288185610b90565b5b91505092915050565b8273ffffffffffffffffffffffffffffffffffffffff16610f52826107b9565b73ffffffffffffffffffffffffffffffffffffffff1614610fa8576040517f08c379a0000000000000000000000000000000000000000000000000000000008152600401610f9f90612c9e565b60405180910390fd5b600073ffffffffffffffffffffffffffffffffffffffff168273ffffffffffffffffffffffffffffffffffffffff161415611018576040517f08c379a000000000000000000000000000000000000000000000000000000000815260040161100f90612b3e565b60405180910390fd5b611023838383611840565b61102e600082610d9b565b6001600360008573ffffffffffffffffffffffffffffffffffffffff1673ffffffffffffffffffffffffffffffffffffffff168152602001908152602001600020600082825461107e9190612f03565b925050819055506001600360008473ffffffffffffffffffffffffffffffffffffffff1673ffffffffffffffffffffffffffffffffffffffff16815260200190815260200160002060008282546110d59190612e22565b92505081905550816002600083815260200190815260200160002060006101000a81548173ffffffffffffffffffffffffffffffffffffffff021916908373ffffffffffffffffffffffffffffffffffffffff160217905550808273ffffffffffffffffffffffffffffffffffffffff168473ffffffffffffffffffffffffffffffffffffffff167fddf252ad1be2c89b69c2b068fc378daa952ba7f163c4a11628f55a4df523b3ef60405160405180910390a4505050565b600081600001549050919050565b6111b6828260405180602001604052806000815250611845565b5050565b60606000821415611202576040518060400160405280600181526020017f30000000000000000000000000000000000000000000000000000000000000008152509050611362565b600082905060005b6000821461123457808061121d9061301f565b915050600a8261122d9190612e78565b915061120a565b60008167ffffffffffffffff811115611276577f4e487b7100000000000000000000000000000000000000000000000000000000600052604160045260246000fd5b6040519080825280601f01601f1916602001820160405280156112a85781602001600182028036833780820191505090505b5090505b6000851461135b576001826112c19190612f03565b9150600a856112d09190613068565b60306112dc9190612e22565b60f81b818381518110611318577f4e487b7100000000000000000000000000000000000000000000000000000000600052603260045260246000fd5b60200101907effffffffffffffffffffffffffffffffffffffffffffffffffffffffffffff1916908160001a905350600a856113549190612e78565b94506112ac565b8093505050505b919050565b606060008251141561138a57604051806020016040528060008152509050611501565b60006040518060600160405280604081526020016131c360409139905060006003600285516113b99190612e22565b6113c39190612e78565b60046113cf9190612ea9565b905060006020826113e09190612e22565b67ffffffffffffffff81111561141f577f4e487b7100000000000000000000000000000000000000000000000000000000600052604160045260246000fd5b6040519080825280601f01601f1916602001820160405280156114515781602001600182028036833780820191505090505b509050818152600183018586518101602084015b818310156114c0576003830192508251603f8160121c168501518253600182019150603f81600c1c168501518253600182019150603f8160061c168501518253600182019150603f8116850151825360018201915050611465565b6003895106600181146114da57600281146114ea576114f5565b613d3d60f01b60028303526114f5565b603d60f81b60018303525b50505050508093505050505b919050565b61150f82610d27565b61154e576040517f08c379a000000000000000000000000000000000000000000000000000000000815260040161154590612c1e565b60405180910390fd5b80600660008481526020019081526020016000209080519060200190611575929190611c18565b505050565b6001816000016000828254019250508190555050565b8173ffffffffffffffffffffffffffffffffffffffff168373ffffffffffffffffffffffffffffffffffffffff1614156115ff576040517f08c379a00000000000000000000000000000000000000000000000000000000081526004016115f690612b5e565b60405180910390fd5b80600560008573ffffffffffffffffffffffffffffffffffffffff1673ffffffffffffffffffffffffffffffffffffffff16815260200190815260200160002060008473ffffffffffffffffffffffffffffffffffffffff1673ffffffffffffffffffffffffffffffffffffffff16815260200190815260200160002060006101000a81548160ff0219169083151502179055508173ffffffffffffffffffffffffffffffffffffffff168373ffffffffffffffffffffffffffffffffffffffff167f17307eab39ab6107e8899845ad3d59bd9653f200f220920489ca2b5937696c31836040516116f09190612ac1565b60405180910390a3505050565b611708848484610f32565b611714848484846118a0565b611753576040517f08c379a000000000000000000000000000000000000000000000000000000000815260040161174a90612afe565b60405180910390fd5b50505050565b606060405180602001604052806000815250905090565b606061177b82610d27565b6117ba576040517f08c379a00000000000000000000000000000000000000000000000000000000081526004016117b190612cbe565b60405180910390fd5b60006117c4611759565b905060008151116117e4576040518060200160405280600081525061180f565b806117ee846111ba565b6040516020016117ff929190612986565b6040516020818303038152906040525b915050919050565b60008151905060006a636f6e736f6c652e6c6f679050602083016000808483855afa5050505050565b505050565b61184f8383611a37565b61185c60008484846118a0565b61189b576040517f08c379a000000000000000000000000000000000000000000000000000000000815260040161189290612afe565b60405180910390fd5b505050565b60006118c18473ffffffffffffffffffffffffffffffffffffffff16611c05565b15611a2a578373ffffffffffffffffffffffffffffffffffffffff1663150b7a026118ea610d93565b8786866040518563ffffffff1660e01b815260040161190c9493929190612a75565b602060405180830381600087803b15801561192657600080fd5b505af192505050801561195757506040513d601f19601f820116820180604052508101906119549190611fc4565b60015b6119da573d8060008114611987576040519150601f19603f3d011682016040523d82523d6000602084013e61198c565b606091505b506000815114156119d2576040517f08c379a00000000000000000000000000000000000000000000000000000000081526004016119c990612afe565b60405180910390fd5b805181602001fd5b63150b7a0260e01b7bffffffffffffffffffffffffffffffffffffffffffffffffffffffff1916817bffffffffffffffffffffffffffffffffffffffffffffffffffffffff191614915050611a2f565b600190505b949350505050565b600073ffffffffffffffffffffffffffffffffffffffff168273ffffffffffffffffffffffffffffffffffffffff161415611aa7576040517f08c379a0000000000000000000000000000000000000000000000000000000008152600401611a9e90612c3e565b60405180910390fd5b611ab081610d27565b15611af0576040517f08c379a0000000000000000000000000000000000000000000000000000000008152600401611ae790612b1e565b60405180910390fd5b611afc60008383611840565b6001600360008473ffffffffffffffffffffffffffffffffffffffff1673ffffffffffffffffffffffffffffffffffffffff1681526020019081526020016000206000828254611b4c9190612e22565b92505081905550816002600083815260200190815260200160002060006101000a81548173ffffffffffffffffffffffffffffffffffffffff021916908373ffffffffffffffffffffffffffffffffffffffff160217905550808273ffffffffffffffffffffffffffffffffffffffff16600073ffffffffffffffffffffffffffffffffffffffff167fddf252ad1be2c89b69c2b068fc378daa952ba7f163c4a11628f55a4df523b3ef60405160405180910390a45050565b600080823b905060008111915050919050565b828054611c2490612fed565b90600052602060002090601f016020900481019282611c465760008555611c8d565b82601f10611c5f57805160ff1916838001178555611c8d565b82800160010185558215611c8d579182015b82811115611c8c578251825591602001919060010190611c71565b5b509050611c9a9190611c9e565b5090565b5b80821115611cb7576000816000905550600101611c9f565b5090565b6000611cce611cc984612d6a565b612d39565b905082815260208101848484011115611ce657600080fd5b611cf1848285612fab565b509392505050565b6000611d0c611d0784612d9a565b612d39565b905082815260208101848484011115611d2457600080fd5b611d2f848285612fab565b509392505050565b600081359050611d4681613166565b92915050565b600081359050611d5b8161317d565b92915050565b600081359050611d7081613194565b92915050565b600081519050611d8581613194565b92915050565b600082601f830112611d9c57600080fd5b8135611dac848260208601611cbb565b91505092915050565b600082601f830112611dc657600080fd5b8135611dd6848260208601611cf9565b91505092915050565b600081359050611dee816131ab565b92915050565b600060208284031215611e0657600080fd5b6000611e1484828501611d37565b91505092915050565b60008060408385031215611e3057600080fd5b6000611e3e85828601611d37565b9250506020611e4f85828601611d37565b9150509250929050565b600080600060608486031215611e6e57600080fd5b6000611e7c86828701611d37565b9350506020611e8d86828701611d37565b9250506040611e9e86828701611ddf565b9150509250925092565b60008060008060808587031215611ebe57600080fd5b6000611ecc87828801611d37565b9450506020611edd87828801611d37565b9350506040611eee87828801611ddf565b925050606085013567ffffffffffffffff811115611f0b57600080fd5b611f1787828801611d8b565b91505092959194509250565b60008060408385031215611f3657600080fd5b6000611f4485828601611d37565b9250506020611f5585828601611d4c565b9150509250929050565b60008060408385031215611f7257600080fd5b6000611f8085828601611d37565b9250506020611f9185828601611ddf565b9150509250929050565b600060208284031215611fad57600080fd5b6000611fbb84828501611d61565b91505092915050565b600060208284031215611fd657600080fd5b6000611fe484828501611d76565b91505092915050565b600060208284031215611fff57600080fd5b600082013567ffffffffffffffff81111561201957600080fd5b61202584828501611db5565b91505092915050565b60006020828403121561204057600080fd5b600061204e84828501611ddf565b91505092915050565b61206081612f37565b82525050565b61206f81612f49565b82525050565b600061208082612ddf565b61208a8185612df5565b935061209a818560208601612fba565b6120a381613155565b840191505092915050565b60006120b982612dea565b6120c38185612e06565b93506120d3818560208601612fba565b6120dc81613155565b840191505092915050565b60006120f282612dea565b6120fc8185612e17565b935061210c818560208601612fba565b80840191505092915050565b6000815461212581612fed565b61212f8186612e17565b9450600182166000811461214a576001811461215b5761218e565b60ff1983168652818601935061218e565b61216485612dca565b60005b8381101561218657815481890152600182019150602081019050612167565b838801955050505b50505092915050565b60006121a4606283612e17565b91507f222c20226465736372697074696f6e22203a2022446f7065206f6d656c65747460008301527f65206e667473206c696b65206e65766572206265666f726565222c2022696d6160208301527f676522203a202022646174613a696d6167652f7376672b786d6c3b626173653660408301527f342c0000000000000000000000000000000000000000000000000000000000006060830152606282019050919050565b6000612256603283612e06565b91507f4552433732313a207472616e7366657220746f206e6f6e20455243373231526560008301527f63656976657220696d706c656d656e74657200000000000000000000000000006020830152604082019050919050565b60006122bc601c83612e06565b91507f4552433732313a20746f6b656e20616c7265616479206d696e746564000000006000830152602082019050919050565b60006122fc602483612e06565b91507f4552433732313a207472616e7366657220746f20746865207a65726f2061646460008301527f72657373000000000000000000000000000000000000000000000000000000006020830152604082019050919050565b6000612362601983612e06565b91507f4552433732313a20617070726f766520746f2063616c6c6572000000000000006000830152602082019050919050565b60006123a2602c83612e06565b91507f4552433732313a206f70657261746f7220717565727920666f72206e6f6e657860008301527f697374656e7420746f6b656e00000000000000000000000000000000000000006020830152604082019050919050565b6000612408600d83612e17565b91507f3c2f746578743e3c2f7376673e000000000000000000000000000000000000006000830152600d82019050919050565b6000612448601783612e06565b91507f536f72727920776527726520736f6c64206f7574203b290000000000000000006000830152602082019050919050565b6000612488603883612e06565b91507f4552433732313a20617070726f76652063616c6c6572206973206e6f74206f7760008301527f6e6572206e6f7220617070726f76656420666f7220616c6c00000000000000006020830152604082019050919050565b60006124ee602a83612e06565b91507f4552433732313a2062616c616e636520717565727920666f7220746865207a6560008301527f726f2061646472657373000000000000000000000000000000000000000000006020830152604082019050919050565b6000612554602983612e06565b91507f4552433732313a206f776e657220717565727920666f72206e6f6e657869737460008301527f656e7420746f6b656e00000000000000000000000000000000000000000000006020830152604082019050919050565b60006125ba602e83612e06565b91507f45524337323155524953746f726167653a2055524920736574206f66206e6f6e60008301527f6578697374656e7420746f6b656e0000000000000000000000000000000000006020830152604082019050919050565b6000612620600283612e17565b91507f227d0000000000000000000000000000000000000000000000000000000000006000830152600282019050919050565b6000612660602083612e06565b91507f4552433732313a206d696e7420746f20746865207a65726f20616464726573736000830152602082019050919050565b60006126a0603183612e06565b91507f45524337323155524953746f726167653a2055524920717565727920666f722060008301527f6e6f6e6578697374656e7420746f6b656e0000000000000000000000000000006020830152604082019050919050565b6000612706602c83612e06565b91507f4552433732313a20617070726f76656420717565727920666f72206e6f6e657860008301527f697374656e7420746f6b656e00000000000000000000000000000000000000006020830152604082019050919050565b600061276c602983612e06565b91507f4552433732313a207472616e73666572206f6620746f6b656e2074686174206960008301527f73206e6f74206f776e00000000000000000000000000000000000000000000006020830152604082019050919050565b60006127d2602f83612e06565b91507f4552433732314d657461646174613a2055524920717565727920666f72206e6f60008301527f6e6578697374656e7420746f6b656e00000000000000000000000000000000006020830152604082019050919050565b6000612838602183612e06565b91507f4552433732313a20617070726f76616c20746f2063757272656e74206f776e6560008301527f72000000000000000000000000000000000000000000000000000000000000006020830152604082019050919050565b600061289e601583612e17565b91507f7b226e616d6522203a20224f6d656c65747465202300000000000000000000006000830152601582019050919050565b60006128de601d83612e17565b91507f646174613a6170706c69636174696f6e2f6a736f6e3b6261736536342c0000006000830152601d82019050919050565b600061291e603183612e06565b91507f4552433732313a207472616e736665722063616c6c6572206973206e6f74206f60008301527f776e6572206e6f7220617070726f7665640000000000000000000000000000006020830152604082019050919050565b61298081612fa1565b82525050565b600061299282856120e7565b915061299e82846120e7565b91508190509392505050565b60006129b68287612118565b91506129c282866120e7565b91506129ce8285612118565b91506129da82846120e7565b91506129e5826123fb565b915081905095945050505050565b60006129fe82612891565b9150612a0a82856120e7565b9150612a1582612197565b9150612a2182846120e7565b9150612a2c82612613565b91508190509392505050565b6000612a43826128d1565b9150612a4f82846120e7565b915081905092915050565b6000602082019050612a6f6000830184612057565b92915050565b6000608082019050612a8a6000830187612057565b612a976020830186612057565b612aa46040830185612977565b8181036060830152612ab68184612075565b905095945050505050565b6000602082019050612ad66000830184612066565b92915050565b60006020820190508181036000830152612af681846120ae565b905092915050565b60006020820190508181036000830152612b1781612249565b9050919050565b60006020820190508181036000830152612b37816122af565b9050919050565b60006020820190508181036000830152612b57816122ef565b9050919050565b60006020820190508181036000830152612b7781612355565b9050919050565b60006020820190508181036000830152612b9781612395565b9050919050565b60006020820190508181036000830152612bb78161243b565b9050919050565b60006020820190508181036000830152612bd78161247b565b9050919050565b60006020820190508181036000830152612bf7816124e1565b9050919050565b60006020820190508181036000830152612c1781612547565b9050919050565b60006020820190508181036000830152612c37816125ad565b9050919050565b60006020820190508181036000830152612c5781612653565b9050919050565b60006020820190508181036000830152612c7781612693565b9050919050565b60006020820190508181036000830152612c97816126f9565b9050919050565b60006020820190508181036000830152612cb78161275f565b9050919050565b60006020820190508181036000830152612cd7816127c5565b9050919050565b60006020820190508181036000830152612cf78161282b565b9050919050565b60006020820190508181036000830152612d1781612911565b9050919050565b6000602082019050612d336000830184612977565b92915050565b6000604051905081810181811067ffffffffffffffff82111715612d6057612d5f613126565b5b8060405250919050565b600067ffffffffffffffff821115612d8557612d84613126565b5b601f19601f8301169050602081019050919050565b600067ffffffffffffffff821115612db557612db4613126565b5b601f19601f8301169050602081019050919050565b60008190508160005260206000209050919050565b600081519050919050565b600081519050919050565b600082825260208201905092915050565b600082825260208201905092915050565b600081905092915050565b6000612e2d82612fa1565b9150612e3883612fa1565b9250827fffffffffffffffffffffffffffffffffffffffffffffffffffffffffffffffff03821115612e6d57612e6c613099565b5b828201905092915050565b6000612e8382612fa1565b9150612e8e83612fa1565b925082612e9e57612e9d6130c8565b5b828204905092915050565b6000612eb482612fa1565b9150612ebf83612fa1565b9250817fffffffffffffffffffffffffffffffffffffffffffffffffffffffffffffffff0483118215151615612ef857612ef7613099565b5b828202905092915050565b6000612f0e82612fa1565b9150612f1983612fa1565b925082821015612f2c57612f2b613099565b5b828203905092915050565b6000612f4282612f81565b9050919050565b60008115159050919050565b60007fffffffff0000000000000000000000000000000000000000000000000000000082169050919050565b600073ffffffffffffffffffffffffffffffffffffffff82169050919050565b6000819050919050565b82818337600083830152505050565b60005b83811015612fd8578082015181840152602081019050612fbd565b83811115612fe7576000848401525b50505050565b6000600282049050600182168061300557607f821691505b60208210811415613019576130186130f7565b5b50919050565b600061302a82612fa1565b91507fffffffffffffffffffffffffffffffffffffffffffffffffffffffffffffffff82141561305d5761305c613099565b5b600182019050919050565b600061307382612fa1565b915061307e83612fa1565b92508261308e5761308d6130c8565b5b828206905092915050565b7f4e487b7100000000000000000000000000000000000000000000000000000000600052601160045260246000fd5b7f4e487b7100000000000000000000000000000000000000000000000000000000600052601260045260246000fd5b7f4e487b7100000000000000000000000000000000000000000000000000000000600052602260045260246000fd5b7f4e487b7100000000000000000000000000000000000000000000000000000000600052604160045260246000fd5b6000601f19601f8301169050919050565b61316f81612f37565b811461317a57600080fd5b50565b61318681612f49565b811461319157600080fd5b50565b61319d81612f55565b81146131a857600080fd5b50565b6131b481612fa1565b81146131bf57600080fd5b5056fe4142434445464748494a4b4c4d4e4f505152535455565758595a6162636465666768696a6b6c6d6e6f707172737475767778797a303132333435363738392b2fa2646970667358221220e34a0d70ad0ce56b3b7aa1852316f40b843b6f6e2306e24a8305bca90f0a630064736f6c634300080000333c2f746578743e3c74657874207374796c653d22666f6e742d73697a653a3970783b666f6e742d7765696768743a3730302220646f6d696e616e742d626173656c696e653d226d6964646c652220746578742d616e63686f723d226d6964646c652220636c6173733d22742220793d223935252220783d22353025223e6f776e6564206279203c73766720786d6c6e733d22687474703a2f2f7777772e77332e6f72672f323030302f737667222076696577426f783d223020302032303020323030223e3c7374796c653e40696d706f72742075726c2868747470733a2f2f666f6e74732e676f6f676c65617069732e636f6d2f6373733f66616d696c793d496e746572293b2e747b66696c6c3a233030303b666f6e742d66616d696c793a496e7465727d3c2f7374796c653e3c726563742066696c6c3d222366666622206865696768743d2231303025222077696474683d2231303025222f3e3c706174682066696c6c3d22234641444235462220643d224d33392e3237352038312e3433346331332e3932342d34352e3534342033332e3734372d35362e3038342037392e32392d34322e31367335362e3038352033332e3734382034322e31362037392e3239322d33332e3734372035362e3038342d37392e32392034322e31362d35362e3038352d33332e3734382d34322e31362d37392e323932222f3e3c74657874207374796c653d22666f6e742d73697a653a313170782220646f6d696e616e742d626173656c696e653d226d6964646c652220746578742d616e63686f723d226d6964646c652220636c6173733d22742220793d223530252220783d22353025223e4f6d656c657474652023",
  "linkReferences": {},
  "deployedLinkReferences": {}
}